:040000009EEF07F078
:08000800046ED8CF05F0E0CF33
:1000100006F00001E9CF0CF0EACF07F0E1CF08F0DD
:10002000E2CF09F0D9CF0AF0DACF0BF0F3CF12F01C
:10003000F4CF13F0FACF14F0F5CF15F0F6CF16F099
:10004000F7CF17F000C00EF001C00FF002C010F0A3
:1000500003C011F09DA030EF00F09EB0FBEF00F068
:100060009DAA36EF00F09EBA10EF01F09DA43CEF80
:1000700000F09EB4AFEF00F0A0AC42EF00F0A1BCE6
:10008000EAEF00F00EC000F00FC001F010C002F067
:1000900011C003F00CC0E9FF07C0EAFF078E08C0DB
:1000A000E1FF09C0E2FF0AC0D9FF0BC0DAFF12C0AE
:1000B000F3FF13C0F4FF14C0FAFF15C0F5FF16C01C
:1000C000F6FF17C0F7FF045006C0E0FF05C0D8FFD9
:1000D0001000F76AE20FF66E000EF7220900F550E5
:1000E0001200409CB8883075A861204E983A0000F4
:1000F0000000000041435F4F4B202564200074A99D
:1001000020D074B71ED04650000815E24650475C18
:1001100012E3D8904634036A1B0FE96E000E0320E9
:10012000EA6EECCF13F1ED52EFCF12F113C1CFFF16
:1001300012C1CEFF06D0749974979D909E90A08CAA
:10014000A19C74A70AD074B908D0F00ECF6E5F0ED0
:10015000CE6EA09C9D809E90466AE3EF00F0D65044
:10016000D7CF03F00101126FD750136FE5082EE2CD
:10017000FF0A03E11251780829E2D76AD66A000122
:10018000758D747D74AD09D095908C809484BD6A12
:10019000040EBD6EB76AB66A08D095908C909484B0
:1001A000BD6A050EBD6EB76AB66A642B482A462A38
:1001B0000101002BD8B4012B00016451330802E186
:1001C000010E646F9CD774959E9401019E9400016A
:1001D00042EF00F095928C8274B307D0B4BC05D086
:1001E000D650196ED7CF1AF07483A19C95928C9239
:1001F000A19C42EF00F074B902D074A70DD0929A7E
:10020000898AC70E006E002EFED700D0929A899A76
:1002100074A702D0749774899E909E9042EF00F06C
:10022000036A5D504D0FE96E000E0320EA6E9EAA30
:10023000FED7AECFEFFF5DC012F1010E5D240F0BB4
:100240005D6E5E505D5C02E112C15DF09E9A42EF10
:1002500000F001010A51016A095D03E209C100F0E1
:100260000CD0006A080E0B6F093700360A51005C8B
:10027000D8B0006E01360B2FF7D7000112000150E5
:1002800003C109F1640E01010A6F0001E2DF00C041
:1002900003F10150300E08E1010104A30ED004B7B0
:1002A0000CD004B9200E04D00101049704990481F4
:1002B000012601509EA8FED7AD6E03C109F10A0EBA
:1002C0000A6F0001C6DF00C003F10150300E08E1E3
:1002D000010104B70BD004A109D004B9200E00011C
:1002E000012601509EA8FED7AD6E0101300E0327F6
:1002F00003519EA8FED7AD6E0001EFEF01F0010E95
:10030000926E926A896AFF0E936EF19E000E956E50
:10031000956A8C6A9484BD6A050EBD6EB76AB66A2A
:1003200094928B920C0EBA6E060EB46E9250030924
:10033000926E130E006E002EFED700D0B450A19C1A
:10034000A60EB56E880ED56E850ECD6E9D84A08CE2
:10035000A19CAE509D8AF098C00EF212F250006E31
:10036000F29E010EA96E020EA86EA69CA69EA68401
:100370000F01550EA76EAA0EA76EA682A6B2FED7D3
:10038000A6940050F212F2CF03F1F29E010EA96E74
:10039000A69CA69EA680A850010103BFF28E000174
:1003A000736FF2CF03F1F29E020EA96EA69CA69E79
:1003B000A680A850010103BFF28E016E0001759363
:1003C00001B0758375A304D0080E4C6E96928D8291
:1003D00073C003F11B0E0101046F000150D7200E02
:1003E0009EA8FED7AD6E3CEF08F0010EEA6E100E2F
:1003F000E96EEF500EE0070E016E006A002EFED788
:10040000012EFBD7C70E006E002EFED70000EF2E88
:10041000F2D7120074A320D195928C821A50BA0898
:1004200005E2FF0A05E11950800802E3000E01D041
:10043000010E74B50ED11A50BA080EE2FF0A03E19C
:100440001950E40809E21A50BF0806E303E1195005
:10045000CB0802E36B6B74851A50BE080FE2FF0AEB
:1004600003E11950CC080AE21A50C30807E303E17C
:100470001950B30803E3010E6B6F74851A50C2085C
:100480000FE2FF0A03E11950B4080AE21A50C70844
:1004900007E303E119509B0803E3020E6B6F7485B9
:1004A0001A50C6080FE2FF0A03E119509C080AE23D
:1004B0001A50CB0807E303E11950830803E3030E46
:1004C0006B6F748574B504D0749395928C92C4D07C
:1004D00074BB07D0748B010E486E496A6C6F726FE3
:1004E00001D06C2B010E4924485CD8A4B1D0010E78
:1004F0006C5DFC0FD8B0A5D0040F2EEF03F0036A9B
:1005000072516D0FE96E000E0320EA6EEF6A036A06
:1005100072516D0F016E000E0322010103C004F140
:10052000036A000172516D0FE96E000E0320EA6E3E
:100530006B51EF24010104C1EAFF01C0E9FFEF6E36
:100540000001722D04D06B51020801E0749B79D038
:10055000036A72516D0F016E000E0322010103C088
:1005600004F1036A000172516D0FE96E000E032061
:10057000EA6EEFCF05F16B35006E0036FC0E00160B
:1005800000500101052504C1EAFF01C0E9FFEF6E3B
:100590000001722D04D06B2D01D001D0749B51D07D
:1005A000036A72516D0F016E000E0322010103C038
:1005B00004F1036A000172516D0FE96E000E032011
:1005C000EA6EEFCF05F16B39006EF00E00160050A9
:1005D0000101052504C1EAFF01C0E9FFEF6E00013A
:1005E000722D04D06B2D01D001D0749B2AD0036AE8
:1005F00072516D0F016E000E0322010103C004F160
:10060000036A000172516D0FE96E000E0320EA6E5D
:10061000EFCF05F16B39006E00360036C00E0016C4
:1006200000500101052504C1EAFF01C0E9FFEF6E9A
:100630000001722D04D06B51020801E0749B722BF3
:100640006C6B4A50485C02E1748F749B492A01D05C
:10065000749B749395928C924AEF08F0E824F76AA1
:10066000F736770FF66E060EF7220A00F550FA6E8F
:100670000800F550F96EFE045005A005EE0574B9AA
:10068000BCD074B7BAD0010E6A6F960E666F04C103
:1006900067F073C068F005C169F0010E4B6E4B50F6
:1006A000475CD8A0A8D04B2C01D009D04B500508EE
:1006B00006E04B50090803E04B500D080AE1036ABD
:1006C0006A51650FE96E000E0320EA6EEF50030BCE
:1006D000456E4B50020809E04B50060806E04B50AF
:1006E0000A0803E04B500E080FE1036A6A51650FD8
:1006F000E96E000E0320EA6EEF30006E00323F0E0E
:1007000000160050030B456E4B50030809E04B5098
:10071000070806E04B500B0803E04B500F080EE1B2
:10072000036A6A51650FE96E000E0320EA6EEF3826
:10073000006E0F0E00160050030B456E4B50040860
:1007400009E04B50080806E04B500C0803E04B5002
:10075000100812E1036A6A51650FE96E000E03206A
:10076000EA6EEF38006E00320032030E00160050C1
:10077000030B456E010E6A274550FC0F3AE2040F49
:10078000FEEF03F0D8904B34036A1B0FE96E000EA6
:100790000320EA6E440EEC6EED527F0EEF6E29D010
:1007A000D8904B34036A1B0FE96E000E0320EA6EEB
:1007B000400EEC6EED52970EEF6E1BD0D8904B347E
:1007C000036A1B0FE96E000E0320EA6E3C0EEC6E0E
:1007D000ED52AF0EEF6E0DD0D8904B34036A1B0F65
:1007E000E96E000E0320EA6E380EEC6EED52C70E75
:1007F000EF6E4B2A54D7749974871200E824F76A75
:10080000F736170FF66E080EF7220A00F550FA6E4B
:100810000800F550F96E8407A007BC07D807030E3F
:100820000101115F0BE3010EEA6E110EE96EEF504C
:1008300005E002D000D00000EF2EFCD7000112002E
:1008400001010E6B0D510E5D63E20E510B25E96E39
:10085000000E0C21EA6EEF50010A000105E0030AC8
:100860000BE0010A23E041D0959E8C8EFA0E010127
:10087000116F0001D4DF39D0959E8C8EFA0E0101E4
:10088000116F0001CCDF959E8C9E020E0101106F4E
:10089000960E116F0001C3DF0101102FF9D7959E4D
:1008A0008C8EFA0E116F0001BADF1FD001010F6BA1
:1008B0000F51010814E3959E8C8EFA0E116F000102
:1008C000AEDF959E8C9E020E0101106F960E116F89
:1008D0000001A5DF0101102FF9D70F2BE9D7959E55
:1008E0008C8EFA0E116F00019ADF959E8C9E010E80
:1008F0000101106F000179DD020E0101106F960EEB
:10090000116F00018CDF0101102FF9D70E2B9AD740
:100910000001120001010A6B9D90A09C9D940A6B3E
:100920000A51090838E3959E8C8EFA0E116F00016A
:1009300076DF959E8C9E020E0101106F000155DD41
:10094000030E01010B6FC80E116F000168DF01017A
:100950000B2FF9D70C6B780E0B6F190E0D6F000172
:100960006FDF05C10CF104C10BF1040E01010D6F25
:10097000000166DF08C10CF107C10BF1040E010193
:100980000D6F00015DDF080E0101106F00012DDD0C
:1009900001010A2BC5D79D80A08C9D840001120007
:1009A00074AFA9D10101036B000173516F5DD8A42D
:1009B000A1D170C003F17151D80FD8B09BD1280FCD
:1009C0007DEF06F0320E0101106F00010EDD03C154
:1009D00004F1010E0101056F000151DE8BD1310ED2
:1009E0009EA8FED7AD6E86D196928D827583759145
:1009F000F250006EF29E020EA96E010EA86EA69C29
:100A0000A69EA6840F01550EA76EAA0EA76EA682FB
:100A1000A6B2FED7A6940050F212080E4C6E00014A
:100A200069D196928D9275937591F250006EF29EF7
:100A3000020EA96EA86AA69CA69EA6840F01550E5A
:100A4000A76EAA0EA76EA682A6B2FED7A6940050E5
:100A5000F2124C6A00014ED17583F250006EF29E84
:100A6000020EA96E010EA86EA69CA69EA6840F017A
:100A7000550EA76EAA0EA76EA682A6B2FED7A694A2
:100A80000050F212000175814C6A34D17583F25026
:100A9000006EF29E020EA96E010EA86EA69CA69E86
:100AA000A6840F01550EA76EAA0EA76EA682A6B247
:100AB000FED7A6940050F21200017581010E4C6E13
:100AC00019D17583F250006EF29E020EA96E010ECE
:100AD000A86EA69CA69EA6840F01550EA76EAA0E10
:100AE000A76EA682A6B2FED7A6940050F21200010D
:100AF0007581020E4C6EFED07583F250006EF29E30
:100B0000020EA96E010EA86EA69CA69EA6840F01D9
:100B1000550EA76EAA0EA76EA682A6B2FED7A69401
:100B20000050F21200017581030E4C6EE3D0758304
:100B3000F250006EF29E020EA96E010EA86EA69CE7
:100B4000A69EA6840F01550EA76EAA0EA76EA682BA
:100B5000A6B2FED7A6940050F21200017581040ED1
:100B60004C6EC8D07583F250006EF29E020EA96ED4
:100B7000010EA86EA69CA69EA6840F01550EA76E18
:100B8000AA0EA76EA682A6B2FED7A6940050F212B5
:100B900000017581050E4C6EADD00101056B910E03
:100BA000046F040E066F086BA10E076F040E096F29
:100BB0000001B0DE9FD00101056B950E046F040E9D
:100BC000066F086BA10E076F040E096F0001A2DE0D
:100BD00091D00101056B910E046F040E066F086B36
:100BE000A50E076F040E096F000194DE83D001018A
:100BF000056B950E046F040E066F086BA50E076F4C
:100C0000040E096F000186DE75D00101056B910E9F
:100C1000046F040E066F086BA90E076F040E096FB0
:100C2000000178DE67D00101056B950E046F040E9C
:100C3000066F086BA90E076F040E096F00016ADECC
:100C400059D00101056B910E046F040E066F086BFD
:100C5000AD0E076F040E096F00015CDE4BD0010181
:100C6000056B950E046F040E066F086BAD0E076FD3
:100C7000040E096F00014EDE3DD00101056B990E97
:100C8000046F040E066F086BA10E076F040E096F48
:100C9000000140DE2FD00101056B9D0E046F040E94
:100CA000066F086BA10E076F040E096F000132DE9C
:100CB00021D0320E0101106F0001F5EC01F075A397
:100CC00008D003C104F10C0E0101056F0001D7DC4F
:100CD00007D003C104F10D0E0101056F0001CFDC47
:100CE00009D0310E9EA8FED7AD6E04D0300E9EA85E
:100CF000FED7AD6E749F4BEF08F0E824F76AF73625
:100D0000150FF66E0D0EF7220A00F550FA6E080068
:100D1000F550F96EC409DE09F40CF40CF40CF40C73
:100D2000F40CF40CF40CF40CF40CF40CE20CEC0CDD
:100D3000F40CB20CF40CF40CF40CF40CE809220AD8
:100D4000580A8C0AC20AF80A2E0B640BF40CF40C35
:100D50009A0BB60BD20BEE0B0A0C260C420C5E0C57
:100D60007A0C960C5E505D5CFDE0036A5E504D0FA0
:100D7000E96E000E0320EA6EEFCF03F1010E5E2450
:100D80000F0B5E6E010103C101F0000112000900AA
:100D9000F6CF04F1F7CF05F1F5509EA8FED7AD6E62
:100DA00004C1F6FF05C1F7FF0101032F01D002D0F6
:100DB0000001EDD7000183EF07F0200E010104A927
:100DC000300E056F03C100F003AF08D0001E002AEB
:100DD00000C003F12D0E056F048F0481015003C183
:100DE00009F1640E0A6F000129EC01F000C003F163
:100DF000300E01240101066F03C109F10A0E0A6FCA
:100E0000000129EC01F0300E00240101086F300EC2
:100E10000124076F05C100F0300E065D04E0048375
:100E200004BF048512D005C106F1200E056F300EF7
:100E3000075D04E0048104BF048307D0D8A40481C3
:100E400004E106C107F1200E066F04B505D004B316
:100E500007D004B109D00CD005519EA8FED7AD6EC5
:100E600006519EA8FED7AD6E07519EA8FED7AD6E67
:100E700008519EA8FED7AD6E00018AEF07F05E50C4
:100E80005D5C5AE06FDF01C05FF05F5024084EE107
:100E900069DF01C060F066DF01C061F063DF01C09F
:100EA00062F06051410A03E0020A39E03ED0F2509C
:100EB000006EF29E010EA96E62C0A8FFA69CA69EBF
:100EC000A6840F01550EA76EAA0EA76EA682A6B223
:100ED000FED7A6940050F212F2CF03F1F29E010E5B
:100EE000A96EA69CA69EA680A850010103BFF28E03
:100EF0000001736FF40EF66E000EF76E060E010120
:100F0000036F000144D773C003F1180E0101046F91
:100F1000000153D7200E9EA8FED7AD6E06D061C04B
:100F200004F162C005F13FEC03F005D05E505D5C5A
:100F300002E018DFFBD7A3D74CEF08F0F86AD09E89
:100F4000078EB8964D0EAF6EA60EAC6E900EAB6EC1
:100F5000950ECB6E050ECA6E9492780EBB6E0C0E7B
:100F6000BA6E1A6A196A010E446EF40E436E456A2F
:100F7000466A100E476E486A496A4A6E4B6A4C6A66
:100F80005D6A5E6A010E646F6A6F6B6B6C6B726F89
:100F9000E40E736F74917493749574977499749B41
:100FA000749D749F7591759375957597776B766B36
:100FB000BA6B7599DC6BFF6BFE6B759B0101016B66
:100FC000006B0001759DC150C00B0F09C16E070E6B
:100FD000B46E2ED00700780202020102020304C0A0
:100FE0000201800104C0020180030AC002028001E4
:100FF0000305C0021780010203020103020202017D
:10100000020201030102010202010302010700DDE5
:101010000202020102020304C00201800104C002B4
:101020000180030AC00206800103020201020000DF
:10103000000EF86E0F0EF76ED40EF66E0900F55026
:10104000006E000A13E00900F550016EE8BE05D0FD
:101050000F0BEA6E0900F5CFE9FF01BC090001ACF6
:101060000900F5CFEEFF004EE9D7F9D7F86A010184
:10107000026B00017FEF01F0020E0101036FFA0E17
:10108000106F0001F5EC01F00101032FF8D700010A
:101090000AEF02F085D4F3D675A326D075A124D02B
:1010A00075AD22D0D6500101036FD7CF04F1D8908F
:1010B0004C34036A000169EC00F00900F5CF03F03D
:1010C000016E03500101045D10E303E10351015C73
:1010D0000CE296928D82130E006E002EFED700D089
:0E10E00096928D920001759D0101D1D7FFD728
:020000040030CA
:0E00000034CE391E008700000FC00FE00F4005
:00000001FF
;PIC18F4550
;CRC=AFFB  CREATED="03-mai-17 12:23"
