:04000000FEEF04F01B
:08000800046ED8CF05F0E0CF33
:1000100006F00001E9CF0CF0EACF07F0E1CF08F0DD
:10002000E2CF09F0D9CF0AF0DACF0BF0F3CF12F01C
:10003000F4CF13F0FACF14F0F5CF15F0F6CF16F099
:10004000F7CF17F000C00EF001C00FF002C010F0A3
:1000500003C011F09DA030EF00F09EB0DCEF00F087
:100060009DAA36EF00F09EBAF1EF00F09DA43CEFA0
:1000700000F09EB49EEF00F0A0AC42EF00F0A1BCF7
:10008000CFEF00F00EC000F00FC001F010C002F082
:1000900011C003F00CC0E9FF07C0EAFF078E08C0DB
:1000A000E1FF09C0E2FF0AC0D9FF0BC0DAFF12C0AE
:1000B000F3FF13C0F4FF14C0FAFF15C0F5FF16C01C
:1000C000F6FF17C0F7FF045006C0E0FF05C0D8FFD9
:1000D000100041435F4F4B202564200072A920D0BF
:1000E00072B71ED04550000815E24550465C12E339
:1000F000D8904534036A1C0FE96E000E0320EA6EA7
:10010000ECCF7EF0ED52EFCF7DF07EC0CFFF7DC013
:10011000CEFF06D0729972979D909E90A08CA19C64
:1001200072A70AD072B908D0F00ECF6E5F0ECE6EF5
:10013000A09C9D809E90456ACAEF00F0D650D7CF14
:1001400003F07D6FD7507E6FE50826E2FF0A03E1DA
:100150007D51780821E2D76AD66A727D72AD09D0E6
:1001600095908C809484BD6A040EBD6EB76AB66AA1
:1001700008D095908C909484BD6A050EBD6EB76AC8
:10018000B66A622B472A452A6251330802E1010E02
:10019000626FA4D772959E949E9442EF00F072B362
:1001A00007D0B4BC05D0D6501A6ED7CF1BF07283DF
:1001B000A19CA19C42EF00F072B902D072A70DD0B1
:1001C000929A898AC70E006E002EFED700D0929AAE
:1001D000899A72A702D0729772899E909E9042EF80
:1001E00000F0036A5B504B0FE96E000E0320EA6ECD
:1001F0009EAAFED7AECFEFFF5BC07DF0010E5B2461
:100200000F0B5B6E5C505B5C02E17DC05BF09E9A05
:1002100042EF00F07B51016A7A5D03E27AC000F0A0
:100220000CD0006A080E7C6F7A3700367B51005C78
:10023000D8B0006E01367C2FF7D71200015074C081
:100240007AF0640E7B6FE6DF00C074F00150300E70
:1002500007E175A30DD075B70BD075B9200E03D08B
:10026000759775997581012601509EA8FED7AD6ED0
:1002700074C07AF00A0E7B6FCDDF00C074F00150BD
:10028000300E06E175B709D075A107D075B9200EFB
:10029000012601509EA8FED7AD6E300E7427745112
:1002A0009EA8FED7AD6EA2EF01F0010E926E926A8B
:1002B000896AFF0E936EF19E000E956E956A8C6AA8
:1002C0009484BD6A050EBD6EB76AB66A060EB46E3A
:1002D00092500309926E130E006E002EFED700D0CE
:1002E000B450A19CA60EB56E880ED56E850ECD6E4F
:1002F0009D84A08CAE509D8AC00EF212F2CF74F095
:10030000F29E010EA96EA69CA69EA680A85074BF60
:10031000F28E716FF2CF74F0F29E020EA96EA69C5F
:10032000A69EA680A85074BFF28E016E739101B094
:10033000738173A102D096928D8271C074F01B0EEE
:10034000756F7CD7200E9EA8FED7AD6E2CEF05F002
:10035000EA6A750EE96EEF500EE0070E016E006A54
:10036000002EFED7012EFBD7C70E006E002EFED743
:100370000000EF2EF2D7120072A310D195928C825A
:100380001B50BA0805E2FF0A05E11A50800802E393
:10039000000E01D0010E72B5FED01B50BA080EE25D
:1003A000FF0A03E11A50E40809E21B50BF0806E304
:1003B00003E11A50CB0802E3696B72851B50BE083B
:1003C0000FE2FF0A03E11A50CC080AE21B50C308EF
:1003D00007E303E11A50B30803E3010E696F728566
:1003E0001B50C2080FE2FF0A03E11A50B4080AE2E8
:1003F0001B50C70807E303E11A509B0803E3020EF2
:10040000696F72851B50C6080FE2FF0A03E11A509C
:100410009C080AE21B50CB0807E303E11A5083084B
:1004200003E3030E696F728572B504D072939592DF
:100430008C92B4D072BB07D0728B010E476E486AA3
:100440006A6F706F01D06A2B010E4824475CD8A4F4
:10045000A1D0010E6A5DFC0FD8B095D0040FD0EF8B
:1004600002F0036A70516B0FE96E000E0320EA6E12
:10047000EF6A036A70516B0F016E000E032203C016
:1004800075F0036A70516B0FE96E000E0320EA6E7F
:100490006951EF2475C0EAFF01C0E9FFEF6E702DCE
:1004A00004D06951020801E0729B6DD0036A70515B
:1004B0006B0F016E000E032203C075F0036A7051CA
:1004C0006B0FE96E000E0320EA6EEFCF76F0693510
:1004D000006E0036FC0E00160050762575C0EAFF4F
:1004E00001C0E9FFEF6E702D04D0692D01D001D05D
:1004F000729B49D0036A70516B0F016E000E03228C
:1005000003C075F0036A70516B0FE96E000E032093
:10051000EA6EEFCF76F06939006EF00E00160050EB
:10052000762575C0EAFF01C0E9FFEF6E702D04D09B
:10053000692D01D001D0729B26D0036A70516B0FD8
:10054000016E000E032203C075F0036A70516B0F39
:10055000E96E000E0320EA6EEFCF76F06939006E87
:1005600000360036C00E00160050762575C0EAFF32
:1005700001C0E9FFEF6E702D04D06951020801E05F
:10058000729B702B6A6B4950475C02E1728F729BC1
:10059000482A01D0729B729395928C9234EF05F0A9
:1005A000E824F76AF736BB0FF66E050EF7220A004D
:1005B000F550FA6E0800F550F96E6204AC04F404CC
:1005C0003A0572B9BCD072B7BAD0010E686F960EF8
:1005D000646F75C065F071C066F076C067F0010E9B
:1005E0004A6E4A50465CD8A0A8D04A2C01D009D007
:1005F0004A50050806E04A50090803E04A500D0831
:100600000AE1036A6851630FE96E000E0320EA6E87
:10061000EF50030B446E4A50020809E04A500608A6
:1006200006E04A500A0803E04A500E080FE1036A48
:100630006851630FE96E000E0320EA6EEF30006E22
:1006400000323F0E00160050030B446E4A50030860
:1006500009E04A50070806E04A500B0803E04A50F8
:100660000F080EE1036A6851630FE96E000E032064
:10067000EA6EEF38006E0F0E00160050030B446E4A
:100680004A50040809E04A50080806E04A500C089D
:1006900003E04A50100812E1036A6851630FE96EE3
:1006A000000E0320EA6EEF38006E00320032030EB7
:1006B00000160050030B446E010E68274450FC0FD7
:1006C0003AE2040FA0EF03F0D8904A34036A1C0FFB
:1006D000E96E000E0320EA6E440EEC6EED527F0EC2
:1006E000EF6E29D0D8904A34036A1C0FE96E000ED1
:1006F0000320EA6E400EEC6EED52970EEF6E1BD0AB
:10070000D8904A34036A1C0FE96E000E0320EA6E8B
:100710003C0EEC6EED52AF0EEF6E0DD0D8904A3419
:10072000036A1C0FE96E000E0320EA6E380EEC6EB1
:10073000ED52C70EEF6E4A2A54D772997287120093
:10074000E824F76AF7365B0FF66E070EF7220A0009
:10075000F550FA6E0800F550F96EC806E406000779
:100760001C0772AF72D0746B71516D5DD8A46CD0E0
:100770006EC074F06F510DE0010A14E0150A17E025
:10078000010A2FE01A0A46E0030A55E0010A58E080
:100790005BD0320E756FDCDD74C075F0010E766FC4
:1007A00010DF52D0310E9EA8FED7AD6E4DD096927E
:1007B0008D827381F250006EF29E020EA96E010EC0
:1007C000A86EA69CA69EA6840F01550EA76EAA0E23
:1007D000A76EA682A6B2FED7A6940050F212000120
:1007E00033D096928D927391F250006EF29E020E6B
:1007F000A96EA86AA69CA69EA6840F01550EA76E98
:10080000AA0EA76EA682A6B2FED7A6940050F21238
:1008100000011AD0320E756F9BDD73A106D074C033
:1008200075F00C0E766FCDDE05D074C075F00D0E30
:10083000766FC7DE09D0310E9EA8FED7AD6E04D00C
:10084000300E9EA8FED7AD6E729F35EF05F05C505E
:100850005B5CFDE0036A5C504B0FE96E000E032009
:10086000EA6EEFCF74F0010E5C240F0B5C6E74C067
:1008700001F012000900F6CF75F0F7CF76F0F550D1
:100880009EA8FED7AD6E75C0F6FF76C0F7FF742F39
:10089000F1D7E6EF04F0200E75A9300E766F74C024
:1008A00000F074AF08D0001E002A00C074F02D0EB6
:1008B000766F758F7581015074C07AF0640E7B6F0E
:1008C000A9DC00C074F0300E0124776F74C07AF098
:1008D0000A0E7B6F9FDC300E0024796F300E0124EE
:1008E000786F76C000F0300E775D04E0758375BFD9
:1008F000758512D076C077F0200E766F300E785D59
:1009000004E0758175BF758307D0D8A4758104E1B3
:1009100077C078F0200E776F75B505D075B307D026
:1009200075B109D00CD076519EA8FED7AD6E775127
:100930009EA8FED7AD6E78519EA8FED7AD6E7951B8
:100940009EA8FED7AD6EEBEF04F05C505B5C54E00C
:100950007EDF01C05DF05D50240848E178DF01C012
:100960005EF075DF01C05FF072DF01C060F05E50C5
:10097000410A03E0020A34E038D0F250006EF29EE1
:10098000010EA96E60C0A8FFA69CA69EA6840F01BA
:10099000550EA76EAA0EA76EA682A6B2FED7A69483
:1009A0000050F212F2CF74F0F29E010EA96EA69CD6
:1009B000A69EA680A850000174BFF28E716FD20E61
:1009C000F66E000EF76E060E746F54D771C074F099
:1009D000180E756F60D7200E9EA8FED7AD6E05D09D
:1009E0005FC075F060C076F0ECDD05D05C505B5CFC
:1009F00002E02DDFFBD7A9D736EF05F0F86AD09ECD
:100A0000078EB8964D0EAF6EA60EAC6E900EAB6E06
:100A10001B6A1A6A446A456A100E466E476A486A3B
:100A2000496E4A6A5B6A5C6A010E626F686F696B45
:100A30006A6B706FE40E716F729172937295729718
:100A40007299729B729D729F7391C150C00B0F0976
:100A5000C16E070EB46E29D4020E746FFA0E756F54
:100A600077DC742FFBD788D47CD66FD762510A0805
:100A700007E172A105D01B0E756FE40E766FA1DD44
:100A800081AC02D081B804D07271FA0E756F60DC4F
:040A9000EAD703009E
:020000040030CA
:0E0000003FCC3E1E0087A1000FC00FE00F4056
:00000001FF
;PIC18F4550
;CRC=A18D  CREATED="11-avr.-16 14:26"
